{
  "_format": "hh-sol-artifact-1",
  "contractName": "ExchangePoint",
  "sourceName": "contracts/ExchangePoint.sol",
  "abi": [
    {
      "inputs": [
        {
          "internalType": "address",
          "name": "user",
          "type": "address"
        }
      ],
      "name": "getUserBalance",
      "outputs": [
        {
          "internalType": "uint256",
          "name": "",
          "type": "uint256"
        }
      ],
      "stateMutability": "view",
      "type": "function"
    },
    {
      "inputs": [
        {
          "internalType": "address payable",
          "name": "to",
          "type": "address"
        }
      ],
      "name": "transfer",
      "outputs": [],
      "stateMutability": "payable",
      "type": "function"
    }
  ],
  "bytecode": "0x608060405234801561001057600080fd5b5061024a806100206000396000f3fe6080604052600436106100295760003560e01c80631a6952301461002e578063477348921461004a575b600080fd5b61004860048036038101906100439190610145565b610087565b005b34801561005657600080fd5b50610071600480360381019061006c919061011c565b6100d1565b60405161007e919061017d565b60405180910390f35b8073ffffffffffffffffffffffffffffffffffffffff166108fc349081150290604051600060405180830381858888f193505050501580156100cd573d6000803e3d6000fd5b5050565b60008173ffffffffffffffffffffffffffffffffffffffff16319050919050565b600081359050610101816101e6565b92915050565b600081359050610116816101fd565b92915050565b60006020828403121561012e57600080fd5b600061013c848285016100f2565b91505092915050565b60006020828403121561015757600080fd5b600061016584828501610107565b91505092915050565b610177816101dc565b82525050565b6000602082019050610192600083018461016e565b92915050565b60006101a3826101bc565b9050919050565b60006101b5826101bc565b9050919050565b600073ffffffffffffffffffffffffffffffffffffffff82169050919050565b6000819050919050565b6101ef81610198565b81146101fa57600080fd5b50565b610206816101aa565b811461021157600080fd5b5056fea26469706673582212207672c8dce27b7641b9816df32605fa84f97b9ca8b598e263fabc4ff3d9c735a564736f6c63430008040033",
  "linkReferences": {},
  "deployedLinkReferences": {}
}